:100000000C942A000C9447000C9447000C94470071
:100010000C9447000C9447000C9447000C94470044
:100020000C9447000C9447000C9447000C94470034
:100030000C9447000C9447000C9447000C94470024
:100040000C9447000C9447000C9447000C94470014
:100050000C94470011241FBECFE5D8E0DEBFCDBF12
:1000600010E0A0E6B0E0E0E6F7E002C005900D92F7
:10007000A23EB107D9F720E0A2EEB0E001C01D9288
:10008000A63EB207E1F70E94F7020C94AE030C946F
:100090000000CF93C82F40E060E083E00E94D700CB
:1000A00040E061E083E00E94D7006C2F82E00E9474
:1000B000BD0041E062E083E00E94D70083EF91E061
:1000C0000197F1F700C0000040E062E083E00E9489
:1000D000D700CF9108958FE097E20197F1F700C024
:1000E000000088E30E9449008CE00E94490081E002
:1000F0000E9449000895CF93C82F41E060E083E05B
:100100000E94D70040E061E083E00E94D7006C2F9E
:1001100082E00E94BD0041E062E083E00E94D700DF
:1001200083EF91E00197F1F700C0000040E062E04A
:1001300083E00E94D700CF9108950F931F93CF9330
:100140008C01C0E003C00E947B00CF5FF801EC0F80
:10015000F11D80818111F7CFCF911F910F910895EB
:10016000882329F0813021F490E4960F01C0962F66
:10017000892F80680E94490008958430A0F481305E
:1001800049F028F0823049F0833051F00EC06BBB4B
:1001900080E0089568BB80E0089565BB80E0089525
:1001A00062BB80E0089581E0089580E00895843086
:1001B00008F07BC0683008F07AC04130C1F581306A
:1001C00091F028F08230D9F0833029F172C02BB33E
:1001D00081E090E002C0880F991F6A95E2F7822BB8
:1001E0008BBB80E0089528B381E090E002C0880FC7
:1001F000991F6A95E2F7822B88BB80E0089525B3AA
:1002000081E090E002C0880F991F6A95E2F7822B87
:1002100085BB80E0089522B381E090E002C0880FA2
:10022000991F6A95E2F7822B82BB80E00895411105
:1002300042C0813099F028F08230E9F0833041F1FA
:100240003CC02BB381E090E002C0880F991F6A95F3
:10025000E2F7809582238BBB80E0089528B381E08C
:1002600090E002C0880F991F6A95E2F7809582237B
:1002700088BB80E0089525B381E090E002C0880F3C
:10028000991F6A95E2F78095822385BB80E00895E7
:1002900022B381E090E002C0880F991F6A95E2F7CF
:1002A0008095822382BB80E0089581E0089581E0FB
:1002B000089580E0089580E0089580E008958430F6
:1002C000A0F4813049F028F0823049F0833051F0B9
:1002D0000EC06ABB80E0089567BB80E0089564BBF0
:1002E00080E0089561BB80E0089581E0089580E09A
:1002F0000895843008F07BC0683008F07AC041303F
:10030000C1F5813091F028F08230D9F0833029F1A5
:1003100072C02AB381E090E002C0880F991F6A95ED
:10032000E2F7822B8ABB80E0089527B381E090E05A
:1003300002C0880F991F6A95E2F7822B87BB80E085
:10034000089524B381E090E002C0880F991F6A9558
:10035000E2F7822B84BB80E0089521B381E090E036
:1003600002C0880F991F6A95E2F7822B81BB80E05B
:100370000895411142C0813099F028F08230E9F0AF
:10038000833041F13CC02AB381E090E002C0880F85
:10039000991F6A95E2F7809582238ABB80E00895D1
:1003A00027B381E090E002C0880F991F6A95E2F7B9
:1003B0008095822387BB80E0089524B381E090E09C
:1003C00002C0880F991F6A95E2F78095822384BB4B
:1003D00080E0089521B381E090E002C0880F991F6A
:1003E0006A95E2F78095822381BB80E0089581E0E1
:1003F000089581E0089580E0089580E0089580E008
:1004000008958430D0F56830D0F5813091F028F02F
:100410008230D9F0833029F134C089B390E002C032
:10042000959587956A95E2F78170FA01808380E05F
:10043000089586B390E002C0959587956A95E2F796
:100440008170FA01808380E0089583B390E002C058
:10045000959587956A95E2F78170FA01808380E02F
:10046000089580B390E002C0959587956A95E2F76C
:100470008170FA01808380E0089581E0089581E031
:10048000089580E0089540E064E080E00E947901F2
:1004900040E065E080E00E94790140E066E080E0B5
:1004A0000E94790140E067E080E00E94790141E02C
:1004B00064E080E00E94D70041E065E080E00E94B7
:1004C000D70041E066E080E00E94D70041E067E0AD
:1004D00080E00E94D7000895FF920F931F93CF935F
:1004E000DF931F92CDB7DEB704E010E00FC0AE017E
:1004F0004F5F5F4F602F80E00E9401029981913031
:1005000019F48CEF800F06C00F5F1F4F08301105E4
:1005100074F38FEF0F90DF91CF911F910F91FF90A8
:100520000895CF93DF93EC0181E00E944900888118
:10053000811108C060E00E94B00080E690E00E9457
:100540009D000AC0813041F460E080E00E94B0006C
:1005500087E690E00E949D008981811108C067E0D4
:100560000E94B0008FE690E00E949D000AC081309A
:1005700041F467E080E00E94B00086E790E00E94CE
:100580009D008A81811109C060E081E00E94B00075
:100590008EE790E00E949D0009C0813039F460E050
:1005A0000E94B00085E890E00E949D008B8181113F
:1005B00009C067E081E00E94B0008DE890E00E94F1
:1005C0009D0009C0813039F467E00E94B00084E9E1
:1005D00090E00E949D002FEB87E299E0215080403F
:1005E0009040E1F700C00000DF91CF9108958BB3F8
:1005F00041E060E00E9479018BB341E061E00E943C
:1006000079018BB341E062E00E9479018BB341E054
:1006100063E00E94790185B36FEF0E945F0182B3AE
:1006200041E060E00E94790182B341E061E00E9414
:10063000790182B341E062E00E9479016FEF83E0CB
:100640000E945F010E948C0380E29EE40E94A80346
:100650000E946B000E9443028CE990E00E949D0082
:100660002FEB87E299E0215080409040E1F700C0F5
:1006700000000E946C028F3F09F449C0C82FD0E0EF
:10068000FE01EE51FF4F80818130A1F40E944900AC
:1006900083EB90E00E949D002FEB87E299E02150D0
:1006A00080409040E1F700C0000082EE90E00E94A0
:1006B00091022DC081112BC081E00E9449008BEC7A
:1006C00090E00E949D0080ED97E00E94AB032FE731
:1006D00084E89EE1215080409040E1F700C0000096
:1006E000CE51DF4F81E088830E94490086ED90E083
:1006F0000E949D0088EE93E00E94AB032FEF84E3FD
:100700009CE0215080409040E1F700C0000082EE64
:1007100090E00E949102ADCF8FB580688FBD8FB5FC
:100720008F7B8FBD8FB582608FBD8EB588608EBD8B
:100730008EB580618EBD8FB58E7F8FBD8EB58E7F5D
:100740008EBD8EB582608EBD8EB58B7F8EBD0895B9
:1007500097BD86BD08959BBD8ABD0895F894FFCFCF
:1007600052313A454D500052313A46756C6C005248
:10077000323A454D500052323A46756C6C00523355
:100780003A454D500052333A46756C6C0052343A3B
:10079000454D500052343A46756C6C0057454C43F9
:1007A0004F4D4520544F20594F55522047415241FB
:1007B0004745004974732046556C6C2063686F6F21
:1007C000736520616E6F74686572004F50454E49C5
:1007D0004E472E2E2E00434C4F53494E472E2E2E61
:0207E000000017
:00000001FF
