:100000000C943E000C945B000C945B000C945B0021
:100010000C945B000C945B000C945B000C946C05DE
:100020000C945B000C945B000C9412190C949005DA
:100030000C945B000C945B000C945B000C945B00D4
:100040000C945B000C945B000C945B000C945B00C4
:100050000C945B0092159F15AB15B915C515D015FD
:10006000DD15E915F51500167B177E178117841726
:10007000871795178A178D179017931711241FBE8E
:10008000CFE5D8E0DEBFCDBF11E0A0E6B0E0ECE107
:10009000F8E302C005900D92AE3FB107D9F722E018
:1000A000AEEFB1E001C01D92AA33B207E1F70E94A2
:1000B000400F0C940C1C0C9400002FE040E060E01A
:1000C00088E790E00E94230520E040E061E080E7BF
:1000D00090E00E9423050895833021F5609180000F
:1000E00081E0860F80938000803158F06FE080912E
:1000F00000020E94920480E20E9453041092800049
:1001000007C0809100020E94920480E20E94530482
:10011000209180004091000260E088E790E00E941A
:1001200023050895811123C0609180008091000211
:100130000E94920480E20E94530480918000811109
:1001400004C08FE08093800003C0815080938000C2
:1001500060918000809100020E94920420918000B2
:100160004091000260E088E790E00E942305089536
:10017000CF93C82F8091370290E00E946C0080914D
:100180003702823021F58091000291E0980F909320
:100190000002943058F06091800083E00E94920445
:1001A00080E20E9453041092000207C06091800018
:1001B0000E94920480E20E945304209180004091AA
:1001C000000260E088E790E00E94230525C08130AE
:1001D00019F560918000809100020E94920480E2F3
:1001E0000E94530480910002811104C083E0809337
:1001F000000203C0815080930002609180008091D2
:1002000000020E949204209180004091000260E070
:1002100088E790E00E9423058EE18C0F90E00E9419
:100220005C0580913702823021F58091FF0191E0D9
:10023000980F9093FF01943058F06091FE0183E095
:100240000E94920480E20E9453041092FF0107C0B2
:100250006091FE010E94920480E20E94530420916A
:10026000FE014091FF0161E080E790E00E942305DC
:1002700025C0813019F56091FE018091FF010E9437
:10028000920480E20E9453048091FF01811104C016
:1002900083E08093FF0103C081508093FF01609150
:1002A000FE018091FF010E9492042091FE01409185
:1002B000FF0161E080E790E00E9423051092370281
:1002C000CF9108950E9409058AE090E00E945C05A4
:1002D00064E080E00E94920483EE90E00E94850436
:1002E00064E081E00E9492048DEE90E00E9485041B
:1002F0006091090270910A0280910B0290910C02A8
:100300000E94A9042FEB8CE595E12150804090409C
:10031000E1F700C000000E94090508950E94090548
:100320008AE090E00E945C0564E080E00E94920414
:1003300085EF90E00E94850464E081E00E949204D1
:100340008EEF90E00E9485046091090270910A028C
:1003500080910B0290910C020E94A90460E082E05F
:100360000E9492048091810090E0A0E0B0E0409172
:10037000090250910A0260910B0270910C02481719
:1003800059076A077B0750F48091090290910A028D
:10039000A0910B02B0910C028093810085E091E066
:1003A0000E9485046091810070E080E090E00E94EE
:1003B000A90488E893E10E945C050E94090508955C
:1003C00084B3806484BB85B3806485BB83ED90E394
:1003D0000197F1F700C0000085B38F7B85BB0895BE
:1003E00084B3806484BB85B3806485BB2FE38DE0D8
:1003F00093E0215080409040E1F700C0000085B3B9
:100400008F7B85BB0895CF93DF93C82FD62F0E9493
:10041000E00181E090E090933602809335028EC037
:100420009091FF0180910002981329C040918000B3
:100430009091FE01491323C00E94F0018D2F0E946C
:10044000B8006091FE018091FF010E94920420910A
:10045000FE014091FF0163E088E690E00E942305E1
:1004600081E0809302022FEB87E299E021508040E7
:100470009040E1F700C000000E948E0167C08C131D
:1004800022C08091800090E028173907E1F40E9493
:10049000F0018D2F0E94B800209180004091000251
:1004A00063E088E690E00E94230581E080930202E9
:1004B0002FEB87E299E0215080409040E1F700C0A7
:1004C00000000E9462016091350270913602613035
:1004D0007105F1F061508C2F0E94920480E20E941D
:1004E0005304209135024C2F62E080E690E00E9498
:1004F00023050E94130D809337028F3F29F00E943D
:10050000E0018D2F0E94B8008D2F90E00E945C05C5
:1005100060913502709136026F30710531F48C2F85
:100520000E94920480E20E945304809135029091CF
:10053000360201969093360280933502209135025F
:1005400030913602203131050CF46ACFDF91CF9122
:100550000895CF93DF9380910402811168C0809148
:10056000090290910A02A0910B02B0910C02209115
:100570000302281710F48093030280910102813056
:1005800031F40E94090581E08093040250C08091FB
:100590000202813089F41092020281E090E090938F
:1005A000360280933502109200028FE08093800023
:1005B0001092FF011092FE011092090210920A029D
:1005C00010920B0210920C0260E080E00E949204F4
:1005D00082E191E00E94850463E081E00E94920440
:1005E00082E291E00E94850463E082E00E9492042E
:1005F0008DE291E00E9485040E94130DD82F811195
:1006000011C00E9409050E945D00C0E080910202B5
:10061000813041F064E66C1B8091FF010E9403026F
:10062000CF5FF4CFD43019F481E080930102DF91E1
:10063000CF9108950E944D050E947B05789402C0D9
:100640000E94A902809104028823D1F30895823088
:1006500009F459C028F48823C1F08130A9F1089524
:10066000843009F48EC008F46DC0853009F4F3C0FD
:10067000089528B388E0822788BBE7EEF3E031973E
:10068000F1F700C000009F5F01C090E09A3F88F33F
:1006900090E00BC028B388E0822788BBEFE1F3E04D
:1006A0003197F1F700C000009F5F9A3F98F30895DB
:1006B00028B388E0822788BBE7EEF3E03197F1F7B3
:1006C00000C000009F5F01C090E09A3F88F390E077
:1006D0000BC028B388E0822788BBE7E5F2E03197BA
:1006E000F1F700C000009F5F9A3F98F3089528B388
:1006F00088E0822788BBE7EEF3E03197F1F700C08E
:1007000000009F5F01C090E09A3F88F390E00BC02B
:1007100028B388E0822788BBEFE8F1E03197F1F752
:1007200000C000009F5F9A3F98F3089528B388E0C7
:10073000822788BBE7EEF3E03197F1F700C00000B5
:100740009F5F01C090E09A3F88F390E00BC028B310
:1007500088E0822788BBE7ECF0E03197F1F700C032
:1007600000009F5F9A3F98F3089528B388E082279E
:1007700088BBE7EEF3E03197F1F700C000009F5F20
:1007800001C090E09A3F88F390E00BC028B388E066
:10079000822788BBEFE1F3E03197F1F700C000005A
:1007A0009F5F9A3F98F390E00BC028B388E08227C0
:1007B00088BBE7EEF3E03197F1F700C000009F5FE0
:1007C0009A3F98F390E00BC028B388E0822788BB5B
:1007D000E7E5F2E03197F1F700C000009F5F9A3F34
:1007E00098F3089528B388E0822788BBEFE1F3E00F
:1007F0003197F1F700C000009F5F01C090E09A3F81
:1008000088F390E00BC028B388E0822788BBE7EC30
:10081000F0E03197F1F700C000009F5F9A3F98F336
:1008200090E00BC028B388E0822788BBEFE1F3E0BB
:100830003197F1F700C000009F5F9A3F98F3FFE700
:1008400028E381E0F15020408040E1F700C0000043
:100850004F5F5F4F02C040E050E04A30510574F2F4
:100860000895CF93C82F40E060E081E00E94A70B7D
:1008700040E061E081E00E94A70B6C2F80E00E94C5
:100880008D0B41E062E081E00E94A70B83EF91E0D5
:100890000197F1F700C0000040E062E081E00E94B3
:1008A000A70BCF910895CF93C82F41E060E081E07E
:1008B0000E94A70B40E061E081E00E94A70B6C2F33
:1008C00080E00E948D0B41E062E081E00E94A70B76
:1008D00083EF91E00197F1F700C0000040E062E093
:1008E00081E00E94A70BCF91089581EF9BE20197D1
:1008F000F1F700C0000088E30E9431048CE00E9400
:10090000310481E00E9431040895CF93DF93EC011C
:1009100003C00E945304219688818111FACFDF9190
:10092000CF910895882379F0813019F490E4960FDF
:100930000BC0823019F490E1960F06C0833021F489
:1009400090E5960F01C0962F892F80680E94310490
:100950000895CF92DF92EF92FF921F93CF93DF9390
:10096000CDB7DEB72A970FB6F894DEBF0FBECDBF66
:100970006B017C0199235CF48DE20E945304F09496
:10098000E094D094C094C11CD11CE11CF11CC11492
:10099000D104E104F10419F480E30E94530410E04F
:1009A00015C0C701B6012AE030E040E050E00E94E7
:1009B000E71BE1E0F0E0EC0FFD1FE10FF11D605DD2
:1009C0006083C22ED32EE42EF52E1F5F1C141D044F
:1009D0001E041F0434F30DC0E12FF0E0319781E0D5
:1009E00090E08C0F9D1FE80FF91F80810E94530437
:1009F00011501111F1CF2A960FB6F894DEBF0FBE39
:100A0000CDBFDF91CF911F91FF90EF90DF90CF90FE
:100A1000089581E00E94310408956FEF80E00E9404
:100A20002F0C41E060E081E00E94490C41E061E070
:100A300081E00E94490C41E062E081E00E94490CA3
:100A40000E9475040895EF92FF920F931F93CF9326
:100A5000DF938C01D62FF42EE22E862F880F880F7D
:100A6000880F805C0E943104C0E007C0F801EC0FE1
:100A7000F11D80810E945304CF5FC830B8F36E2D02
:100A80008F2D0E9492048D2F0E945304DF91CF91ED
:100A90001F910F91FF90EF9008958EB588608EBDE5
:100AA0008DE790E09BBD8ABD89B7806189BF78944E
:100AB0008EB583608EBD08959C011092080208C017
:100AC00090910802992321F02150310910920802D7
:100AD00021153105A9F708951F920F920FB60F92B5
:100AE00011248F9381E0809308028F910F900FBEA5
:100AF0000F901F90189583B78F7B83BF83B7877F35
:100B000083BF89B7816089BF83B78E7F83BF83B777
:100B1000826083BF83B78B7F83BF80EC82BF0895E1
:100B20001F920F920FB60F9211242F933F934F9362
:100B30005F936F937F938F939F93AF93BF93EF9345
:100B4000FF9380910602909107020196909307020D
:100B5000809306028638914009F043C080910D02CF
:100B600090910E02A0910F02B09110020196A11D6A
:100B7000B11D80930D0290930E02A0930F02B093CB
:100B80001002109207021092060280EC82BF609160
:100B90000D0270910E0280910F02909110022AE0D6
:100BA00030E040E050E00E94C51B672B682B692BAA
:100BB000C1F4809105028F5F809305028091090244
:100BC00090910A02A0910B02B0910C020196A11D16
:100BD000B11D8093090290930A02A0930B02B09377
:100BE0000C02FF91EF91BF91AF919F918F917F91F7
:100BF0006F915F914F913F912F910F900FBE0F908A
:100C00001F9018952FE040E060E082EA90E00E949B
:100C1000230520E040E061E08AE990E00E9423059E
:100C20000895833021F56091AA0081E0860F8093BA
:100C3000AA00803158F06FE0809113020E94920464
:100C400080E20E9453041092AA0007C08091130210
:100C50000E94920480E20E9453042091AA004091D5
:100C6000130260E082EA90E00E942305089581115A
:100C700023C06091AA00809113020E94920480E236
:100C80000E9453048091AA00811104C08FE08093D8
:100C9000AA0003C081508093AA006091AA008091AD
:100CA00013020E9492042091AA004091130260E076
:100CB00082EA90E00E9423050895CF93C82F809187
:100CC000370290E00E94110680913702823021F5B0
:100CD0008091130291E0980F90931302943058F092
:100CE0006091AA0083E00E94920480E20E94530473
:100CF0001092130207C06091AA000E94920480E241
:100D00000E9453042091AA004091130260E082EAFD
:100D100090E00E94230525C0813019F56091AA005A
:100D2000809113020E94920480E20E9453048091F9
:100D30001302811104C083E08093130203C0815029
:100D4000809313026091AA00809113020E94920482
:100D50002091AA004091130260E082EA90E00E9494
:100D600023058EE18C0F90E00E945C058091370294
:100D7000823021F58091120291E0980F9093120237
:100D8000943058F06091110283E00E94920480E256
:100D90000E9453041092120207C0609111020E9437
:100DA000920480E20E9453042091110240911202A9
:100DB00061E08AE990E00E94230525C0813019F5A1
:100DC00060911102809112020E94920480E20E94BE
:100DD000530480911202811104C083E080931202B7
:100DE00003C081508093120260911102809112021F
:100DF0000E949204209111024091120261E08AE95E
:100E000090E00E94230510923702CF9108950E942E
:100E100009058AE090E00E945C0564E080E00E94A1
:100E2000920483EE90E00E94850464E081E00E94D9
:100E3000920486E391E00E94850480ED97E00E9491
:100E40005C050E94090508958091AB0090E0A0E048
:100E5000B0E04091090250910A0260910B0270913A
:100E60000C02481759076A077B0750F48091090262
:100E700090910A02A0910B02B0910C028093AB00FA
:100E80000E9409058AE090E00E945C0564E080E031
:100E90000E94920485EF90E00E94850464E081E066
:100EA0000E9492048EEF90E00E94850460910902F6
:100EB00070910A0280910B0290910C020E94A90489
:100EC0008091090290910A02A0910B02B0910C024C
:100ED0000E94461560E082E00E94920485E091E065
:100EE0000E9485046091AB0070E080E090E00E9479
:100EF000A90488E893E10E945C050E940905089511
:100F000084B3806484BB85B3806485BB83ED90E348
:100F10000197F1F700C0000085B38F7B85BB089572
:100F200084B3806484BB85B3806485BB2FE38DE08C
:100F300093E0215080409040E1F700C0000085B36D
:100F40008F7B85BB0895CF93DF93C82FD62F0E9448
:100F5000800781E090E0909336028093350200C1D3
:100F6000809113028C1306C02091AA0030E0621712
:100F7000730751F090911202891323C09091AA0037
:100F80008091110298131DC00E9490078D2F0E941E
:100F90005D062091AA004091130263E082E990E08F
:100FA0000E94230581E0809315022FEB87E299E0F0
:100FB000215080409040E1F700C000000E940707E8
:100FC000D7C06130710509F4B5C061508C2F0E9403
:100FD000920480E20E945304209135024C2F62E07B
:100FE0008AE890E00E9423050E94130D8093370247
:100FF0008F3F09F49BC0813009F495C0833009F418
:1010000092C0843009F083C00E9480078091AA00BA
:1010100090E00197909339028093380270C030912C
:10102000130220911202321322C02091110230E0EB
:1010300082179307E1F40E9490078D2F0E945D06AE
:10104000209111024091120263E082E990E00E9437
:10105000230581E0809315022FEB87E299E0215070
:1010600080409040E1F700C000000E94240760919A
:101070003802709139026E30710551F16F5F8091C5
:1010800013020E94920480E20E94530420913802CD
:101090004091130264E082E890E00E9423050E94E0
:1010A000130D809337028F3F79F060913802809161
:1010B00013020E94920480E20E94530468E280912D
:1010C00012020E94A30728C088E290E00E945C05FB
:1010D00060913802709139026115710539F480917F
:1010E00013020E94920480E20E945304809138020D
:1010F0009091390201979093390280933802809140
:1011000038029091390299230CF089CF05C0609183
:1011100035028C2F0E94920480E20E94530488E2E0
:101120000E945D0625C090E00E94110686E490E0D2
:101130000E945C0560913502709136026F30710536
:1011400031F48C2F0E94920480E20E94530480911B
:1011500035029091360201969093360280933502C3
:101160006091350270913602603171050CF4F8CE51
:10117000DF91CF910895CF93DF93C82FD62F0E9490
:10118000800781E090E0909336028093350200C1A1
:10119000809113028C1306C02091AA0030E06217E0
:1011A000730751F090911202891323C09091AA0005
:1011B0008091110298131DC00E9490078D2F0E94EC
:1011C0005D062091AA004091130263E082E990E05D
:1011D0000E94230581E0809315022FEB87E299E0BE
:1011E000215080409040E1F700C000000E940707B6
:1011F000D7C06130710509F4B5C061508C2F0E94D1
:10120000920480E20E945304209135024C2F62E048
:101210008AE890E00E9423050E94130D8093370214
:101220008F3F09F49BC0813009F495C0833009F4E5
:1012300092C0843009F083C00E9480078091AA0088
:1012400090E00197909339028093380270C03091FA
:10125000130220911202321322C02091110230E0B9
:1012600082179307E1F40E9490078D2F0E945D067C
:10127000209111024091120263E082E990E00E9405
:10128000230581E0809315022FEB87E299E021503E
:1012900080409040E1F700C000000E942407609168
:1012A0003802709139026E30710551F16F5F809193
:1012B00013020E94920480E20E945304209138029B
:1012C0004091130264E082E890E00E9423050E94AE
:1012D000130D809337028F3F79F06091380280912F
:1012E00013020E94920480E20E94530468E28091FB
:1012F00012020E94BB0828C082E390E00E945C05B5
:1013000060913802709139026115710539F480914C
:1013100013020E94920480E20E94530480913802DA
:10132000909139020197909339028093380280910D
:1013300038029091390299230CF089CF05C0609151
:1013400035028C2F0E94920480E20E94530488E2AE
:101350000E945D0625C090E00E94110688E290E0A0
:101360000E945C0560913502709136026F30710504
:1013700031F48C2F0E94920480E20E9453048091E9
:101380003502909136020196909336028093350291
:101390006091350270913602603171050CF4F8CE1F
:1013A000DF91CF910895CF93DF93C82FD62F0E945E
:1013B000800781E090E0909336028093350200C16F
:1013C000809113028C1306C02091AA0030E06217AE
:1013D000730751F090911202891323C09091AA00D3
:1013E0008091110298131DC00E9490078D2F0E94BA
:1013F0005D062091AA004091130263E082E990E02B
:101400000E94230581E0809315022FEB87E299E08B
:10141000215080409040E1F700C000000E94070783
:10142000D7C06130710509F4B5C061508C2F0E949E
:10143000920480E20E945304209135024C2F62E016
:101440008AE890E00E9423050E94130D80933702E2
:101450008F3F09F49BC0813009F495C0833009F4B3
:1014600092C0843009F083C00E9480078091AA0056
:1014700090E00197909339028093380270C03091C8
:10148000130220911202321322C02091110230E087
:1014900082179307E1F40E9490078D2F0E945D064A
:1014A000209111024091120263E082E990E00E94D3
:1014B000230581E0809315022FEB87E299E021500C
:1014C00080409040E1F700C000000E942407609136
:1014D0003802709139026E30710551F16F5F809161
:1014E00013020E94920480E20E9453042091380269
:1014F0004091130264E082E890E00E9423050E947C
:10150000130D809337028F3F79F0609138028091FC
:1015100013020E94920480E20E94530468E28091C8
:1015200012020E94A30728C088E290E00E945C0596
:1015300060913802709139026115710539F480911A
:1015400013020E94920480E20E94530480913802A8
:1015500090913902019790933902809338028091DB
:1015600038029091390299230CF089CF05C060911F
:1015700035028C2F0E94920480E20E94530488E27C
:101580000E945D0625C090E00E94110687E290E06F
:101590000E945C0560913502709136026F307105D2
:1015A00031F48C2F0E94920480E20E9453048091B7
:1015B000350290913602019690933602809335025F
:1015C0006091350270913602603171050CF4F8CEED
:1015D000DF91CF9108958091090290910A02A09124
:1015E0000B02B0910C0280911402813019F40E9418
:1015F0000905089580911502813089F41092150231
:1016000081E090E0909336028093350210921302AD
:101610008FE08093AA0010921202109211020E9491
:101620007B050E9438151092090210920A0210924E
:101630000B0210920C0260E080E00E94920480E4B1
:1016400091E00E94850460E081E00E94920480E5C0
:1016500091E00E94850460E082E00E94920487E5A8
:1016600091E00E94850460E083E00E9492048DE591
:1016700091E00E9485040E94130D811115C00E9403
:101680007B050E9409050E9402060E947B0580914D
:1016900015028130A1F168E2809112020E94A30735
:1016A00081E080931602F3CF8130A1F40E947B0584
:1016B0000E9409050E94020680911502813031F0D6
:1016C00068E2809112020E94BB08F6CF81E080930D
:1016D00016020895823099F40E947B050E94090544
:1016E0000E94020680911502813031F068E28091FB
:1016F00012020E94D309F6CF81E08093160208956A
:101700000E944D050E947B05789402C00E94EB0A5E
:10171000809116028823D1F308958430A0F481309B
:1017200049F028F0823049F0833051F00EC06BBB95
:1017300080E0089568BB80E0089565BB80E008956F
:1017400062BB80E0089581E0089580E008958430D0
:1017500008F07BC0683008F07AC04130C1F58130B4
:1017600091F028F08230D9F0833029F172C02BB388
:1017700081E090E002C0880F991F6A95E2F7822B02
:101780008BBB80E0089528B381E090E002C0880F11
:10179000991F6A95E2F7822B88BB80E0089525B3F4
:1017A00081E090E002C0880F991F6A95E2F7822BD2
:1017B00085BB80E0089522B381E090E002C0880FED
:1017C000991F6A95E2F7822B82BB80E00895411150
:1017D00042C0813099F028F08230E9F0833041F145
:1017E0003CC02BB381E090E002C0880F991F6A953E
:1017F000E2F7809582238BBB80E0089528B381E0D7
:1018000090E002C0880F991F6A95E2F780958223C5
:1018100088BB80E0089525B381E090E002C0880F86
:10182000991F6A95E2F78095822385BB80E0089531
:1018300022B381E090E002C0880F991F6A95E2F719
:101840008095822382BB80E0089581E0089581E045
:10185000089580E0089580E0089580E00895843040
:10186000A0F4813049F028F0823049F0833051F003
:101870000EC06ABB80E0089567BB80E0089564BB3A
:1018800080E0089561BB80E0089581E0089580E0E4
:101890000895843008F07BC0683008F07AC0413089
:1018A000C1F5813091F028F08230D9F0833029F1F0
:1018B00072C02AB381E090E002C0880F991F6A9538
:1018C000E2F7822B8ABB80E0089527B381E090E0A5
:1018D00002C0880F991F6A95E2F7822B87BB80E0D0
:1018E000089524B381E090E002C0880F991F6A95A3
:1018F000E2F7822B84BB80E0089521B381E090E081
:1019000002C0880F991F6A95E2F7822B81BB80E0A5
:101910000895411142C0813099F028F08230E9F0F9
:10192000833041F13CC02AB381E090E002C0880FCF
:10193000991F6A95E2F7809582238ABB80E008951B
:1019400027B381E090E002C0880F991F6A95E2F703
:101950008095822387BB80E0089524B381E090E0E6
:1019600002C0880F991F6A95E2F78095822384BB95
:1019700080E0089521B381E090E002C0880F991FB4
:101980006A95E2F78095822381BB80E0089581E02B
:10199000089581E0089580E0089580E0089580E052
:1019A00008958430D0F56830D0F5813091F028F07A
:1019B0008230D9F0833029F134C089B390E002C07D
:1019C000959587956A95E2F78170FA01808380E0AA
:1019D000089586B390E002C0959587956A95E2F7E1
:1019E0008170FA01808380E0089583B390E002C0A3
:1019F000959587956A95E2F78170FA01808380E07A
:101A0000089580B390E002C0959587956A95E2F7B6
:101A10008170FA01808380E0089581E0089581E07B
:101A2000089580E00895FF920F931F93CF93DF9363
:101A30001F92CDB7DEB760EF82E00E942F0C41E02D
:101A400060E082E00E94A70B41E061E082E00E943A
:101A5000A70B41E062E082E00E94A70B41E063E057
:101A600082E00E94A70B41E064E082E00E94A70BA5
:101A700000E010E019C0F02EAE014F5F5F4F602F05
:101A800082E00E94D10C898181110CC007C0AE0197
:101A90004F5F5F4F6F2D82E00E94D10C89818823B8
:101AA000B1F307C00F5F1F4F0530110524F3FF246A
:101AB000FA948F2D0F90DF91CF911F910F91FF908E
:101AC0000895682F81E00E942F0C089598B321E0BB
:101AD00030E002C0220F331F8A95E2F7292728BB86
:101AE0000895CF93C82F853069F018F4843031F011
:101AF00014C0863059F0873069F00FC080E00E9432
:101B000027030BC081E00E94270307C082E00E94E8
:101B1000270303C083E00E9427038C2F0E94660DD9
:101B20002FEF84E39CE0215080409040E1F700C01B
:101B300000008C2F0E94660D2FEF84E39CE0215063
:101B400080409040E1F700C00000CF91089584E00C
:101B50000E94270388B320E1822788BB88B390E2E4
:101B6000892788BB38B380E4382738BB38B330586E
:101B700038BB3FEF41EE54E0315040405040E1F778
:101B800000C0000038B3232728BB28B3922798BB96
:101B900098B3892788BB88B3805888BB8FEF91EEB4
:101BA00024E0815090402040E1F700C000000895FB
:101BB00087B3886087BB83B7886183BF83B7826040
:101BC00083BF8FE78CBF83ED90E30197F1F700C0EF
:101BD000000083B78F7E83BF83ED90E30197F1F719
:101BE00000C0000008951F93CF93DF93CDB7DEB7F9
:101BF00028970FB6F894DEBF0FBECDBF1092170224
:101C000010921602109221021092200210920502E8
:101C1000109204020E940D0560E080E00E94920490
:101C200084E691E00E94850460E081E00E949204D5
:101C300082E791E00E94850460E082E00E949204C5
:101C400080E891E00E94850460E083E00E949204B5
:101C50008AE891E00E94850488E0EBEDF0E0DE0187
:101C6000119601900D928A95E1F720E040E060E046
:101C7000CE0101960E94230510E0BBC00E94130D07
:101C800080931702813021F0823009F458C0B1C02E
:101C9000112359F160E080E00E94920484E691E013
:101CA0000E94850460E081E00E94920482E791E056
:101CB0000E94850460E082E00E94920480E891E046
:101CC0000E94850460E083E00E9492048AE891E02B
:101CD0000E9485040E94D80D115020E0412F60E041
:101CE000CE0101960E94230584C060E080E00E943E
:101CF000920484E691E00E94850460E081E00E9405
:101D0000920482E791E00E94850460E082E00E94F4
:101D1000920480E891E00E94850460E083E00E94E4
:101D200092048AE891E00E9485040E94D80D20E088
:101D3000412F60E0CE0101960E9423055AC0133066
:101D400058F560E080E00E94920484E691E00E94F1
:101D5000850460E081E00E94920482E791E00E94A5
:101D6000850460E082E00E94920480E891E00E9495
:101D7000850460E083E00E9492048AE891E00E947A
:101D800085040E94D80D1F5F20E0412F60E0CE0146
:101D900001960E9423052DC081E00E9431041F5F3F
:101DA00060E080E00E94920482E791E00E94850456
:101DB00060E081E00E94920480E891E00E94850446
:101DC00060E082E00E9492048AE891E00E9485042B
:101DD00060E083E00E94920485E991E00E9485041E
:101DE0000E94D80D20E043E060E0CE0101960E9401
:101DF000230580911702843009F040CF109217021A
:101E0000113099F028F01230C1F01330F1F025C0F4
:101E10000E94D80D81E00E9431048FEF0E94610D75
:101E20000E9438150E94A01821C00E94D80D81E0A0
:101E30000E9431040E94421019C00E94D80D81E016
:101E40000E9431040E941A0311C00E94D80D81E043
:101E50000E9431040E94800B09C0143038F00E94A7
:101E6000D80D81E00E9431040E94781928960FB69F
:101E7000F894DEBF0FBECDBFDF91CF911F910895C3
:101E80000E94F30DFDCF84B3806484BB85B380646E
:101E900085BB83ED90E30197F1F700C0000085B3A7
:101EA0008F7B85BB089584B3806484BB85B38064D5
:101EB00085BB2FE38DE093E0215080409040E1F717
:101EC00000C0000085B38F7B85BB08958091200200
:101ED000811122C02091C7004091C80063E088E1D1
:101EE00092E00E9423058091C800833038F48F5F10
:101EF0008093C8008FE08093C70005C08FE0809377
:101F0000C7001092C8002091C7004091C80061E04E
:101F10008DEA90E00E9423050895809120028111AE
:101F20008EC00E94130D80932102813049F138F058
:101F3000823009F440C0833009F457C008950E94EC
:101F4000660F20912402211107C041E060E085EB7B
:101F500090E00E94230508954091C90063E088E164
:101F600092E00E9423052091240221502093240214
:101F70004091C90060E085EB90E00E942305089540
:101F80000E94660F4091C900442309F458C0209173
:101F9000240263E088E192E00E9423054091C90099
:101FA00041504093C9002091240260E085EB90E00D
:101FB0000E94230508950E94660F4091C900433096
:101FC000F0F52091240263E088E192E00E9423056D
:101FD0004091C9004F5F4093C9002091240260E006
:101FE00085EB90E00E94230508950E94660F2091E2
:101FF0002402273088F04091C90063E088E192E034
:102000000E94230520E041E060E085EB90E00E9423
:1020100023051092240208954091C90063E088E1ED
:1020200092E00E942305209124022F5F2093240236
:102030004091C90060E085EB90E00E94230508957F
:102040008091200281111DC08091AC00833048F442
:102050008F5FEDEBF0E0808391E091838093AC00A3
:1020600007C0EDEBF0E081E0818310821092AC00BC
:10207000EDEBF0E02181408164E08FEB90E00E9485
:102080002305089580912002811128C02091240207
:102090004091C90060E085EB90E00E94230520910B
:1020A000C7004091C80061E08DEA90E00E942305DE
:1020B0000E9420102FE382E49FE021508040904056
:1020C000E1F700C0000006C00E948D0F0E94611160
:1020D0000E943C13809120028823B1F308958091DF
:1020E00020028111EDC08091BE008F3008F472C0D3
:1020F000809123028F5F8093230281E00E9431044C
:1021000066E081E00E9492048FE991E00E948504DC
:102110000E94530F2FE382E49FE0215080409040C3
:10212000E1F700C0000081E00E94310466E081E038
:102130000E9492048FE991E00E9485042FE382E4DB
:102140009FE0215080409040E1F700C0000081E016
:102150000E943104809123028330B1F581E00E9416
:10216000310466E081E00E94920486EA91E00E94D8
:1021700085040E94530F2FE382E49FE021508040AA
:102180009040E1F700C0000081E00E94310466E069
:1021900081E00E94920486EA91E00E9485040E94F8
:1021A000530F2FE382E49FE0215080409040E1F7FD
:1021B00000C0000081E00E943104109223021092BE
:1021C000220281E08093200280912002811102C0CE
:1021D0000E9442108091BE00811172C08091220243
:1021E0008F5F8093220281E00E94310466E081E0EB
:1021F0000E9492048FE991E00E9485040E94530F8F
:102200002FE382E49FE0215080409040E1F700C03E
:10221000000081E00E94310466E081E00E949204A7
:102220008FE991E00E9485042FE382E49FE0215032
:1022300080409040E1F700C0000081E00E9431043E
:10224000809122028330B1F581E00E94310466E082
:1022500081E00E9492048FEA91E00E9485040E942E
:1022600090072FE382E49FE0215080409040E1F707
:1022700000C0000081E00E94310466E081E00E941D
:1022800092048FEA91E00E9485040E94530F2FE38D
:1022900082E49FE0215080409040E1F700C00000C0
:1022A00081E00E943104109223021092220281E008
:1022B0008093200280912002811102C00E9442106E
:1022C0000895CF93DF93809120028111D2C10E94A3
:1022D0006F102091BE0030E08091240290E00196C2
:1022E0002817390709F0C5C19091BD008091C90038
:1022F0009813BFC10E94430F8091C900813009F437
:1023000082C038F0823009F400C1833009F431C151
:10231000B0C10E94660F66C00E94660F27C00E946F
:10232000660F0E946F10CDEBD0E02981488163E0F9
:1023300088E192E00E94230529812F5F298348814B
:102340004F5F488364E08FEB90E00E9423052FE30A
:102350008DE093E0215080409040E1F700C0000004
:102360000E948D0F0E943C130E946F108091BD004F
:10237000833020F49091BE009F3088F2833090F13A
:102380000E94660F27C00E94660F0E946F10CDEB5F
:10239000D0E02981488163E088E192E00E94230532
:1023A00048814150488329812F5F298364E08FEB66
:1023B00090E00E9423052FE38DE093E021508040C0
:1023C0009040E1F700C000000E948D0F0E943C1376
:1023D0000E946F108091BD00882321F0809120021F
:1023E000882389F22091BE0030E08091C70090E000
:1023F00001972817390709F43CC1809120028823EE
:1024000009F48ACF36C10E94660F0E946F106CC01B
:102410000E94660F27C00E94660F0E946F10CDEBCE
:10242000D0E02981488163E088E192E00E942305A1
:1024300029812F5F298348814F5F488364E08FEBB8
:1024400090E00E9423052FE38DE093E0215080402F
:102450009040E1F700C000000E948D0F0E943C13E5
:102460000E946F104091BD00433050F42091BE0097
:1024700030E08091C70090E00197821793075CF6E7
:10248000433090F10E94660F27C00E94660F0E94A1
:102490006F10CDEBD0E02981488163E088E192E0C4
:1024A0000E94230548814150488329812F5F298359
:1024B00064E08FEB90E00E9423052FE38DE093E032
:1024C000215080409040E1F700C000000E948D0F35
:1024D0000E943C130E946F108091BD00882321F060
:1024E00080912002882389F22091BE0030E0809103
:1024F000C70090E00197821793070CF4BAC080914F
:102500002002882309F484CFB4C00E94660F0E9481
:102510006F1025C00E94660F0E946F10CDEBD0E0B7
:102520002981488163E088E192E00E9423052981A6
:102530002F5F2983488164E08FEB90E00E942305A0
:102540002FE38DE093E0215080409040E1F700C000
:1025500000000E943C130E948D0F0E946F1080911A
:10256000BE00803108F085C080912002882391F25E
:1025700080C00E94660F6EC00E94660F27C00E9436
:10258000660F0E946F10CDEBD0E02981488163E097
:1025900088E192E00E94230529812F5F29834881E9
:1025A0004F5F488364E08FEB90E00E9423052FE3A8
:1025B0008DE093E0215080409040E1F700C00000A2
:1025C0000E948D0F0E943C130E946F104091BD002D
:1025D000433050F42091BE0030E08091C70090E07D
:1025E00001972817390759F64330A0F10E94660F6A
:1025F00029C00E94660F0E946F10CDEBD0E02981A8
:10260000488163E088E192E00E94230548814150BF
:10261000488329812F5F298364E08FEB90E00E943B
:1026200023052FE38DE093E0215080409040E1F7B7
:1026300000C000000E948D0F0E943C130E946F108A
:102640000E94660F8091BD00882321F080912002B6
:10265000882379F22091BE0030E08091C70090E09D
:1026600001972817390729F080912002882309F45F
:1026700083CFDF91CF910895CF93DF938091200294
:102680008111C8C10E946F102091BE0030E080917E
:10269000C70090E001972817390709F0BBC1909156
:1026A000BD008091C8009813B5C10E94430F80916E
:1026B000C800813009F489C038F0823009F4B9C00B
:1026C000833009F432C1A6C10E94660F6DC00E941A
:1026D0008D0F0E946F10CDEBD0E02981488163E01F
:1026E00088E192E00E9423052981215029834881B5
:1026F0004F5F488364E08FEB90E00E9423052FE357
:102700008DE093E0215080409040E1F700C0000050
:102710000E9461110E946F104091BD00433050F43F
:102720002091BE0030E08091240290E001962817AD
:10273000390769F64330C0F12091BE0030E0809146
:10274000C70090E001978217930734F52DC00E94CF
:102750008D0F0E946F10CDEBD0E02981488163E09E
:1027600088E192E00E9423054881415048832981F5
:102770002150298364E08FEB90E00E9423052FE332
:102780008DE093E0215080409040E1F700C00000D0
:102790000E9461110E946F108091BD00882321F07A
:1027A00080912002882399F22091BE0030E0809130
:1027B000240290E001962817390709F42BC1809173
:1027C0002002882309F4A8CF25C10E948D0F27C0BD
:1027D0000E948D0F0E946F10CDEBD0E029814881BF
:1027E00063E088E192E00E9423052981215029833A
:1027F000488164E08FEB90E00E9423050E948D0FDA
:102800002FE38DE093E0215080409040E1F700C03D
:1028100000000E9461110E946F100E948D0F809134
:10282000BE00882309F4F6C080912002882381F23B
:10283000F1C00E94660F68C00E948D0F0E946F1049
:1028400023C00E94660FCDEBD0E02981488163E070
:1028500088E192E00E942305298121502983488143
:102860004F5F488364E08FEB90E00E9423052FE3E5
:102870008DE093E0215080409040E1F700C00000DF
:102880000E9461110E946F104091BD00433050F4CE
:102890002091BE0030E08091240290E0019628173C
:1028A000390779F6433080F10E94660F25C00E94F7
:1028B0008D0F0E946F10CDEBD0E02981488163E03D
:1028C00088E192E00E942305488141504883298194
:1028D0002150298364E08FEB90E00E9423052FE3D1
:1028E0008DE093E0215080409040E1F700C000006F
:1028F0000E9461110E946F108091BD00882321F019
:1029000080912002882399F22091BE0030E08091CE
:10291000240290E001962817390709F47BC08091C2
:102920002002882309F488CF75C00E94660F0E9498
:102930006F1061C00E948D0F0E946F10CDEBD0E030
:102940002981488163E088E192E00E942305298182
:102950002150298348814150488364E08FEB90E007
:102960000E9423052FE38DE093E0215080409040AA
:10297000E1F700C000000E9461110E946F104091B9
:10298000BD00443050F42091BE0030E0809124021C
:1029900090E001962817390769F6433060F50E94E8
:1029A000660F25C00E948D0F0E946F10CDEBD0E006
:1029B0002981488163E088E192E00E9423054881F3
:1029C0004F5F488329812150298364E08FEB90E099
:1029D0000E9423052FE38DE093E02150804090403A
:1029E000E1F700C000000E9461110E946F10809109
:1029F00020028823B9F22091BE0030E080912402A9
:102A000090E001962817390729F080912002882349
:102A100009F4B5CFDF91CF9108956FE783E00E946D
:102A20002F0C6FE783E00E948D0B0895813019F021
:102A3000823039F0089541E064E083E00E94A70B02
:102A4000089541E065E083E00E94A70B089581307E
:102A500019F0823039F0089540E064E083E00E948C
:102A6000A70B089540E065E083E00E94A70B08955E
:102A70000E940D1581E00E94271582E00E94271513
:102A80000895682F83E00E948D0B08951F93CF93C4
:102A9000DF938436A8F5DDEC8D9FD12D11241D2FF9
:102AA000169516951695110F912F990F990F190FCD
:102AB000811B182FD695D695D695C0E01FC081E012
:102AC0000E941615812F0E9441158FE19EE4019707
:102AD000F1F700C0000081E00E94271582E00E940B
:102AE00016158D2F0E9441158FE19EE40197F1F795
:102AF00000C0000082E00E942715CF5FC233F8F2C9
:102B0000DF91CF911F910895CF93DF93EB0190E078
:102B1000FC013197EA30F10508F07EC0E65DFF4F19
:102B20000C94061C84E08883898385E08A8387E08F
:102B30008B838C838D8386E0FA0180836DC084E073
:102B4000888385E089838A838B8386E08C838D8369
:102B5000FA01808361C084E0888389838A8386E068
:102B60008B838C838D838E838F8388E0FA018083AF
:102B700053C085E0888394E0998396E09A839B8391
:102B800097E09C83FA01808347C096E0988385E0B4
:102B900089839A838B8397E09C83FA0180833CC06E
:102BA00084E0888389838A8387E08B8386E08C83B3
:102BB00095E09D83FA0180832FC085E08883898317
:102BC00096E09A8397E09B8394E09C83FA0180834C
:102BD00023C024E0288386E0898397E09A832B83AF
:102BE0009C838D83FA01808317C086E0888387E009
:102BF000898385E08A838B838C83FA0180830CC070
:102C000027E0288395E0998386E08A832B8324E05C
:102C10002C839D83FA018083DF91CF9108950E94D8
:102C2000090563E081E00E94920488EB91E00E9434
:102C300085042FEF89E698E1215080409040E1F72C
:102C400000C0000008950E94B51B6AEF70E081E0AB
:102C50000E94941B78940895CF93C0E004C084E050
:102C60000E94710DCF5FCC23D1F3C0E004C085E09A
:102C70000E94710DCF5FC330D0F3C0E004C086E086
:102C80000E94710DCF5FC230D0F38EE18093290294
:102C90000E942316CF910895CF93C0E004C084E032
:102CA0000E94710DCF5FC330D0F3C0E004C086E056
:102CB0000E94710DCF5FC530D0F38EE18093290261
:102CC0000E942316CF910895CF93C0E004C085E001
:102CD0000E94710DCF5FCC23D1F3C0E004C084E02B
:102CE0000E94710DCF5FCC23D1F3C0E004C086E019
:102CF0000E94710DCF5FC230D0F3C0E004C087E006
:102D00000E94710DCF5FCC23D1F38EE18093290215
:102D10000E942316CF910895CF93C0E004C084E0B1
:102D20000E94710DCF5FC330D0F387E00E94710D18
:102D300086E00E94710D85E00E94710D8EE1809306
:102D400029020E942316CF910895CF93C0E004C0BA
:102D500085E00E94710DCF5FC230D0F386E00E9403
:102D6000710D87E00E94710D84E00E94710D8EE16B
:102D7000809329020E942316CF91089584E00E9437
:102D8000710D86E00E94710D87E00E94710D84E054
:102D90000E94710D87E00E94710D86E00E94710D06
:102DA0008EE1809329020E9423160895CF9386E036
:102DB0000E94710DC0E004C087E00E94710DCF5FDA
:102DC000CC23D1F3C0E004C085E00E94710DCF5F39
:102DD000C330D0F38EE1809329020E942316CF9155
:102DE000089587E00E94710D85E00E94710D86E0D4
:102DF0000E94710D87E00E94710D84E00E94710DA8
:102E000085E00E94710D8EE1809329020E942316B5
:102E100008950F931F93CF93DF938C01D62F0E94B9
:102E20002316C0E031C00E94130D8C5F853091F0F5
:102E300018F4843031F028C08630A9F08730E1F0F2
:102E400023C0F801EC0FF11D84E080830E94710D16
:102E5000CF5F1AC0F801EC0FF11D85E080830E945E
:102E6000710DCF5F11C0F801EC0FF11D86E080837A
:102E70000E94710DCF5F08C0F801EC0FF11D87E0D3
:102E800080830E94710DCF5FCD1720F480912902BD
:102E90008F3F49F6DF91CF911F910F91089513BE97
:102EA00089B78D7F89BF0895CF93C0E004C084E0C7
:102EB0000E94710DCF5FC230D0F385E00E94710D8A
:102EC000C0E004C087E00E94710DCF5FC330D0F333
:102ED0008EE1809329020E944F170E942316CF9102
:102EE000089590E0FC013197EA30F105F0F4EC5CD4
:102EF000FF4F0C94061C0E94541708950E942C1634
:102F000008950E944C1608950E94641608950E9428
:102F10008C1608950E94A51608950E94BE16089565
:102F20000E94D61608950E94F1160895FF920F93FD
:102F30001F93CF93DF93EC018B01F42E8091290234
:102F4000181634F00E944F170E940F1680E016C02A
:102F50000E944F1720E00DC0822F90E0FE01E80F85
:102F6000F91F3081F801E80FF91F8081381305C07F
:102F70002F5F2F1588F381E001C080E0DF91CF91B2
:102F80001F910F91FF900895CF93DF93C0E0D1E0A0
:102F900010C0DD2359F00E94090564E080E00E9422
:102FA000920483EC91E00E948504D0E00E94A70D7A
:102FB000CF5FC53070F3DF91CF9108950E9409056E
:102FC00064E080E00E9492048BEC91E00E94850412
:102FD00085E00E9427030895CF93DF930E9409059F
:102FE000D0E0C0E016C060E081E00E94920485ED70
:102FF00091E00E94850460E082E00E9492048DEDE1
:1030000091E00E9485040E94130DD82F8F3F09F094
:10301000CF5FCC2341F3D13039F410922B021092C0
:103020002A021092290202C00E9409058D2FDF9109
:10303000CF910895CF93DF93D82FC62F0E94090513
:1030400060E082E00E94920484EE91E00E94850498
:103050006D2F70E080E090E00E94A90460E083E0C2
:103060000E94920481EF91E00E9485046C2F70E031
:1030700080E090E00E94A904DF91CF9108958091B3
:1030800027029091280201969093280280932702AC
:1030900080912502909126020196909326028093BA
:1030A0002502889731F58091CA00882389F082E053
:1030B0000E94271581E00E94161580912B020E9424
:1030C00041151092CA00109226021092250211C0DA
:1030D00081E00E94271582E00E94161580912A0245
:1030E0000E94411581E08093CA001092260210923E
:1030F00025028091270290912802803A9F40F9F49E
:10310000909129029923DCF087E69802812D112401
:103110008595859597FD8395382F330F232F220FA3
:10312000220F230F392F321B30932B0280932A0258
:10313000109228021092270291509093290208952C
:10314000CF92DF92EF92FF920F931F93CF93DF9373
:10315000CDB7DEB7A9970FB6F894DEBF0FBECDBFCF
:1031600000E011E084E17E0125E1E20EF11CF701AF
:10317000282F11922A95E9F7FE0131966F011192DD
:103180008A95E9F719A60E940905602F812F0E94F0
:103190001A18FFEF23ED30E3F15020403040E1F703
:1031A00000C00000AE01475D5F4FB701812F0E9454
:1031B0008415812F0E94711769A5C6010E94091705
:1031C00049A5B601C7010E949617882331F01F5FF9
:1031D00089A5080F0E94C417C5CF0E94DE17602F73
:1031E000812F0E941A188FEF9DE3E9E481509040EF
:1031F000E040E1F700C000000E94EC17882319F0BE
:1032000000E011E0AFCFA9960FB6F894DEBF0FBE75
:10321000CDBFDF91CF911F910F91FF90EF90DF9085
:10322000CF9008951F920F920FB60F9211242F93F3
:103230003F934F935F936F937F938F939F93AF933E
:10324000BF93EF93FF930E943F18FF91EF91BF91BF
:10325000AF919F918F917F916F915F914F913F912E
:103260002F910F900FBE0F901F90189584B380641C
:1032700084BB85B3806485BB2FE788E391E0215050
:1032800080409040E1F700C0000085B38F7B85BB94
:103290000895E82FF0E08DE89BE3E89F9001E99F17
:1032A000300DF89F300D1124275C3F4C237030788F
:1032B000332334F4215031092C6F3F6F2F5F3F4F80
:1032C000DB012C9327E335E1E29FC001E39F900DE2
:1032D000F29F900D1124885C9A4E8F7090789923FC
:1032E00024F40197806F9F6F0196FA0180830895FF
:1032F000BF92CF92DF92EF92FF920F931F93CF93E3
:10330000DF93CDB7DEB7C258D1090FB6F894DEBF50
:103310000FBECDBF20E013C0E1E0F0E0EC0FFD1FD9
:1033200060E1269FE00DF11D1124E80FF11D90E3EF
:1033300090838F5F01C080E0803170F32F5F243075
:10334000D0F3198281E08A8390E012C0E1E4F0E0DA
:10335000EC0FFD1F70E1979FE00DF11D1124E80FA8
:10336000F11D10828F5F01C080E0803178F39F5F94
:103370009430D0F382E022968FAF229723968FAFBE
:10338000239720E040E062E083ED90E00E94230577
:1033900021E040E062E083ED90E00E94230565E0DB
:1033A00080E00E9492048AE20E94530489E02796FA
:1033B0008FAF2797CF57DF4F1882C158D04085E095
:1033C000CE57DF4F8883C258D0408FEF99E628E16F
:1033D000815090402040E1F700C00000F12C07E050
:1033E00011E0DD24D394E12C0F2EF3E0BF2EF02D5D
:1033F0000E94130DC82E6FEF861301C0CB2C71E015
:10340000C71609F447C0C71630F182E0C81609F4A0
:1034100060C093E0C9127BC0D3942D2D4E2D62E085
:1034200083ED90E00E9423052FEF62E577E02150C5
:1034300060407040E1F700C00000E1E4F0E0EC0F14
:10344000FD1F80E1E89EE00DF11D1124ED0DF11D41
:1034500082E080835CC0DA942D2D4E2D62E083EDF6
:1034600090E00E9423059FEF22E567E09150204005
:103470006040E1F700C00000E1E4F0E0EC0FFD1F68
:1034800070E1E79EE00DF11D1124ED0DF11D82E0CC
:1034900080833DC0EA942D2D4E2D61E08BEC90E0B1
:1034A0000E9423058FEF97E823E181509040204050
:1034B000E1F700C00000E1E4F0E0EC0FFD1F60E187
:1034C000E69EE00DF11D1124ED0DF11D81E08083DC
:1034D0001EC0E3942D2D4E2D61E08BEC90E00E94F8
:1034E00023057FEF87E893E1715080409040E1F73A
:1034F00000C00000E1E4F0E0EC0FFD1F20E1E29EDF
:10350000E00DF11D1124ED0DF11D81E0808364E0DB
:10351000E61609F4A4C070E1D71609F4A0C08FEF35
:10352000D81609F49CC0E81609F499C091E0CF5769
:10353000DF4F8881C158D0408E1190E081E0CE5796
:10354000DF4F2881C258D0402D1180E0892371F4CB
:1035500040E050E030E35DC0AE014E575F4FBE012A
:103560006F577F4F812F0E9449191F5FCF57DF4F41
:103570008881C158D040CE57DF4F6881C258D040B3
:10358000E1E4F0E0EC0FFD1F90E1899FE00DF11DFB
:103590001124E60FF11D90819111DECF0E9492045B
:1035A0008AE20E945304CF57DF4F9881C158D04020
:1035B000CE57DF4F8881C258D040E1E4F0E0EC0FF5
:1035C000FD1F20E1929FE00DF11D1124E80FF11D78
:1035D00089E0808336C0FA01E295F295F07FFE27FC
:1035E000E07FFE2761E070E06C0F7D1FE60FF71FA4
:1035F000E80FF91F2081231718F4F42E082F322F1B
:10360000019602C080E090E08F30910524F34F5F77
:103610005F4F43305105B4F3E1E0F0E0EC0FFD1FE4
:1036200070E1F79EE00DF11D1124E00FF11D80E324
:1036300080831F5F202F4F2D65E08CE292E00E9477
:103640002305E1E0F0E0EC0FFD1F80E1E89EE00DD6
:10365000F11D1124ED0DF11D1083BC2CC9CE81E0AC
:103660000E94310465E081E00E9492040E943619B4
:103670008BEC91E00E9485049FEF23ED60E3915075
:1036800020406040E1F700C00000CE57DF4F0FB68A
:10369000F894DEBF0FBECDBFDF91CF911F910F9188
:1036A000FF90EF90DF90CF90BF900895882311F0A6
:1036B0008230E1F4611104C083B78E7F83BF03C001
:1036C00083B7816083BF411104C083B78D7F83BFFF
:1036D00003C083B7826083BF211104C083B78B7F8F
:1036E00083BF089583B7846083BF08958130D9F480
:1036F000611104C08EB58E7F8EBD03C08EB5816012
:103700008EBD411104C08EB58D7F8EBD03C08EB5B8
:1037100082608EBD211104C08EB58B7F8EBD089551
:103720008EB584608EBD0895823099F028F4882388
:1037300049F0813061F00895843089F068F0853077
:1037400089F0089562BF82B78093340208956CBFF8
:10375000089577BD66BD08957BBD6ABD089579BDA6
:1037600068BD08957DBD6CBD089583B78F7B83BF11
:1037700083B7886083BF20E041E060E080E00E9482
:10378000561B89B7826089BF0895A1E21A2EAA1B31
:10379000BB1BFD010DC0AA1FBB1FEE1FFF1FA21701
:1037A000B307E407F50720F0A21BB30BE40BF50BFE
:1037B000661F771F881F991F1A9469F76095709587
:1037C000809590959B01AC01BD01CF010895052E18
:1037D00097FB1EF400940E94FE1B57FD07D00E9429
:1037E000C51B07FC03D04EF40C94FE1B509540956E
:1037F000309521953F4F4F4F5F4F0895909580959D
:10380000709561957F4F8F4F9F4F0895EE0FFF1F6B
:0C3810000590F491E02D0994F894FFCF8E
:10381C000000040000000000110A04150E0404004E
:10382C00041E050F140A110014141E15040A1100AD
:10383C000FFF000004000000000000000400000066
:10384C000000110A04150E040400041E050F140ACE
:10385C00110004040E15040A11000FFFFF10181DAF
:10386C001F1F1D18100103171F1F170301FF010055
:10387C00040E1F1F0E04000F0101010000060606B6
:10388C000600000000001F1F000000181C1E1F1F58
:10389C001E1C1847414D45204F5645520053434F6F
:1038AC0052453A2000594F5520776F6E21005449EC
:1038BC004D453A20006D696E692073636F72653AED
:1038CC00200057454C434F4D452C436F7720626F7A
:1038DC0079003120544F2053544152540035205418
:1038EC004F204F75740054525920616761696E0006
:1038FC0057454C434F4D452C20436F77626F7900F1
:10390C00312D4561737900322D4D656400332D489E
:10391C006172640031203A20536D6F696E205361DF
:10392C00790032203A2050696E6720506F6E670024
:10393C0033203A2043617463680034203A20436F8B
:10394C0077426F790035203A20536E616B650047E2
:10395C004F414C21210050312057494E212100501C
:10396C00322057494E21210054696D65204F7574E2
:10397C00212100596F752057696E0047616D6520D4
:10398C004F76657200312D537461727400322D457F
:10399C0078697400596F7572204C6576656C3A20A5
:0E39AC0000596F75722053636F72653A2000E8
:00000001FF
