:100000000C942A000C9447000C9447000C94470071
:100010000C9447000C9447000C9447000C94470044
:100020000C9447000C9447000C9447000C94470034
:100030000C9447000C9447000C9447000C94470024
:100040000C9447000C9447000C9447000C94470014
:100050000C94470011241FBECFE5D8E0DEBFCDBF12
:1000600010E0A0E6B0E0E6E7F7E002C005900D92F0
:10007000AC3BB107D9F720E0ACEBB0E001C01D927A
:10008000A03CB207E1F70E9436020C94B9030C942D
:10009000000081B38F7781BB81B38F7B81BB81B33C
:1000A0008F7D81BB81B3877F81BB84B3806284BB3A
:1000B00084B3806184BB84B3886084BB84B3846070
:1000C00084BB82B3806882BB82B3806482BB82B30C
:1000D000806282BB82B3886082BB08958FEFE5E0C7
:1000E00062C095B39C6395BB95B36E2F70E021E021
:1000F00030E00E2E02C0220F331F0A94E2F7209543
:10010000292325BB97E04BC0943009F4915020B3CC
:10011000492F50E030E0092E02C0359527950A940A
:10012000E2F720FD3BC02FEF32E5F7E021503040F1
:10013000F040E1F700C0000020B330E0092E02C01B
:10014000359527950A94E2F720FD28C0933099F45D
:1001500085E090E0861B970B26E030E0241B350BF2
:10016000880F991F880F991F8C569F4FDC01A20F93
:10017000B31F8C9117C085E090E0861B970B27E09A
:1001800030E0241B350B880F991F880F991F8C5660
:100190009F4FDC01A20FB31F8C9104C0915093308C
:1001A00008F0B2CFE150E23008F09BCF08959BB346
:1001B000977F9BBB98B3987E98BB282F22952F7072
:1001C000922F9870492F50E0440F551F2770422BF3
:1001D00098B3492B48BB9BB394609BBB95E09A9521
:1001E000F1F700009BB39B7F9BBBEFE3FFE13197EF
:1001F000F1F700C0000098B3987E98BB982F9870D4
:10020000292F30E0220F331F8770282B88B3282B2B
:1002100028BB8BB384608BBBF5E0FA95F1F7000047
:100220008BB38B7F8BBB8FE39FE10197F1F700C00E
:100230000000EFE1FEE43197F1F700C000000895FF
:100240008AB388608ABB8AB384608ABB87B38160C3
:1002500087BB87B3826087BB87B3846087BB87B364
:10026000806187BB8FE59AEE0197F1F700C000002F
:1002700082E00E94D70088E20E94D7008CE00E94B2
:10028000D70086E00E94D70081E00E94D70080E876
:100290000E94D70008959BB398609BBB98B3987E4B
:1002A00098BB282F22952F70922F9870492F50E0DD
:1002B000440F551F2770422B98B3492B48BB9BB363
:1002C00094609BBB95E09A95F1F700009BB39B7FF0
:1002D0009BBBEFE8F1E03197F1F700C000009BB362
:1002E00094609BBB98B3987E98BB982F9870292FE9
:1002F00030E0220F331F8770282B88B3282B28BBB0
:100300008BB384608BBBF5E0FA95F1F700008BB3FB
:100310008B7F8BBB8FE891E00197F1F700C0000065
:100320008BB384608BBBEFE1FEE43197F1F700C043
:10033000000008950F931F93CF93DF938C01C0E0CB
:10034000D0E003C00E944B012196F801EC0FFD1F85
:1003500080818111F7CFDF91CF911F910F91089587
:1003600081E00E94D7000895DC01ED91FC91119786
:10037000408121E030E0C90114960C9002C0880F42
:10038000991F0A94E2F7842B80830895DC0112966A
:10039000ED91FC911397408121E030E0C901149662
:1003A0000C9002C0880F991F0A94E2F7842B808377
:1003B0000895DC011296ED91FC911397408121E0A4
:1003C00030E0B90114960C9002C0660F771F0A94B2
:1003D000E2F7CB01809584238083089520E030E00C
:1003E0000CC080FF02C091E301C090E3F901E45426
:1003F000FF4F908386952F5F3F4F243031058CF35C
:1004000008958091BC00813329F48FE690E00E942A
:10041000C60104C08FE690E00E94D9018091BD0022
:10042000813329F48AE690E00E94C60104C08AE67E
:1004300090E00E94D9018091BE00813329F485E6C5
:1004400090E00E94C60104C085E690E00E94D901B8
:100450008091BF00813329F480E690E00E94C601BC
:10046000089580E690E00E94D9010895CF93DF932C
:10047000CDB7DEB7A0970FB6F894DEBF0FBECDBFE5
:100480008FE690E00E94B4018AE690E00E94B401F9
:1004900085E690E00E94B40180E690E00E94B401FD
:1004A0000E9420010E9414030E9449000E946D03D3
:1004B00080E2E4E7F0E0DE01119601900D928A956A
:1004C000E1F784EA90E00E949A01C12CD12C7601D8
:1004D000A12CB12C0FEF1FEF0E946E008F3FE1F3B4
:1004E0008E30E9F08F3009F457C08D3009F05FC0CD
:1004F0000F5F1F4F0F30110579F38CE20E944B0103
:10050000F801EE0FFF1F81E090E08C0F9D1FE80FB8
:10051000F91FD182C082C12CD12C7601DDCF0E947F
:10052000B0018BEA90E00E949A010F5F1F4FF80123
:10053000EE0FFF1F81E090E08C0F9D1FE80FF91F69
:10054000D182C082C12CD12C7601AA24A394B12CD3
:10055000C3CFF501EE0FFF1F81E090E08C0F9D1FD0
:10056000E80FF91F80819181092E000CAA0BBB0BAB
:10057000C816D906EA06FB0659F48A2D0E94EE0138
:100580000E9401026A2D8EE393E00E9471031A2DEE
:100590009FEFA91AB90A03C0A12CB12C1FEF81E16A
:1005A000A816B104B4F2812F0E943E03FCCF8A301A
:1005B00008F092CF00311105E9F0A114B104D1F493
:1005C000CC0CDD1CEE1CFF1CB701A601440F551F0F
:1005D000661F771F440F551F661F771FC40ED51E59
:1005E000E61EF71EC80ED11CE11CF11C805D0E94A6
:1005F0004B0172CFCC0CDD1CEE1CFF1CB701A60119
:10060000440F551F661F771F440F551F661F771F26
:10061000C40ED51EE61EF71EC80ED11CE11CF11C2F
:10062000805D0E944B0158CF8AB388608ABB8AB331
:1006300084608ABB87B3876787BB88B3806488BBC5
:1006400088B3806288BB8BB384608BBB8BB38860BC
:100650008BBB08959C0198B3987E98BB48B3C901A1
:100660006AE070E00E9491039C0128703327220FFA
:10067000331F8770282B242B28BB0895CF93DF933B
:10068000D82FCDEC8C9FC12D1124C695C695C6954B
:100690008C2F90E00E942A038FE39FE10197F1F7EE
:1006A00000C0000098B380E4892788BBCC0F8C2F52
:1006B000880F880FC80F8D2F8C1B90E00E942A0393
:1006C0008FE39FE10197F1F700C0000098B380E24B
:1006D000892788BBDF91CF91089512BE85E083BF43
:1006E0000895EF92FF921F93CF93DF937C01162F13
:1006F000C0E0D0E003C0812FF701099508B600FEE5
:10070000FACFCE33D10519F481E088BF04C0219619
:1007100081E088BFF3CFDF91CF911F91FF90EF90E1
:10072000089597FB072E16F4009407D077FD09D0A3
:100730000E94A50307FC05D03EF4909581959F4F3C
:100740000895709561957F4F0895AA1BBB1B51E1D9
:1007500007C0AA1FBB1FA617B70710F0A61BB70B31
:10076000881F991F5A95A9F780959095BC01CD01D6
:060770000895F894FFCF8C
:1007760037003800073A003B00063A003B00053ACE
:10078600003B0004FFFFFFFFFFFFFFFFFFFFFFFF30
:10079600FFFFFFFFFFFFFFFFFFFFFFFFFFFFFFFF63
:1007A600FFFFFFFF0708090A0405060B0102030CF9
:1007B6000E000F0D4C6973743A2000536561726325
:0C07C60068204E756D6265723A200000DC
:00000001FF
